{
  "transactions": [
    {
      "hash": "0x70fad14b55be6e440b9e273db3ebebaa02bf00f328534650fd82fe719f2b0aab",
      "transactionType": "CALL",
      "contractName": null,
      "contractAddress": "0x660f9aa249761000190e93ab914ac1d832e917ae",
      "function": "deposit()",
      "arguments": [],
      "transaction": {
        "from": "0x538d8f0c878ff754cbc08d80ddadf08bf7f6bec7",
        "to": "0x660f9aa249761000190e93ab914ac1d832e917ae",
        "gas": "0xd7ff",
        "value": "0x16345785d8a0000",
        "input": "0xd0e30db0",
        "nonce": "0x499",
        "chainId": "0x14a34"
      },
      "additionalContracts": [],
      "isFixedGasLimit": false
    },
    {
      "hash": "0x823aba4138ae68cd316204dd2830390e049f003f040ceb332f9f89da475a0a67",
      "transactionType": "CALL",
      "contractName": null,
      "contractAddress": "0x660f9aa249761000190e93ab914ac1d832e917ae",
      "function": "addStake(uint32)",
      "arguments": [
        "86400"
      ],
      "transaction": {
        "from": "0x538d8f0c878ff754cbc08d80ddadf08bf7f6bec7",
        "to": "0x660f9aa249761000190e93ab914ac1d832e917ae",
        "gas": "0xf866",
        "value": "0x16345785d8a0000",
        "input": "0x0396cb600000000000000000000000000000000000000000000000000000000000015180",
        "nonce": "0x49a",
        "chainId": "0x14a34"
      },
      "additionalContracts": [],
      "isFixedGasLimit": false
    }
  ],
  "receipts": [
    {
      "status": "0x1",
      "cumulativeGasUsed": "0x24d411",
      "logs": [
        {
          "address": "0xc9a1a675efa0156f77540c097da5deeb6a32c917",
          "topics": [
            "0x2da466a7b24304f47e87fa2e1e5a81b9831ce54fec19055ce277ca2f39ba42c4",
            "0x000000000000000000000000660f9aa249761000190e93ab914ac1d832e917ae"
          ],
          "data": "0x00000000000000000000000000000000000000000000000001aa535d3d0c0000",
          "blockHash": "0x57bf025909b6b434ccbf3504f3b464275ac390891cce442692053622b951764a",
          "blockNumber": "0x1522f62",
          "transactionHash": "0x70fad14b55be6e440b9e273db3ebebaa02bf00f328534650fd82fe719f2b0aab",
          "transactionIndex": "0xc",
          "logIndex": "0x38",
          "removed": false
        }
      ],
      "logsBloom": "0x00000000000000000000000000000000000000000000000000000000000000000000000000000000000000000000000000000000000000000000000020004000000000000000400000000000000000000000000000000000000000000000200000000000000000000000000200000000000000000000000000000000000200000000000000000000000000000000000000000000000000000000000000000000000000000000000000001000000000000000000000000000000000000000000000000000000000000000000000000000000000000000000000000000000000000040000000000000000000000000000000000000000000000008000000000000",
      "type": "0x2",
      "transactionHash": "0x70fad14b55be6e440b9e273db3ebebaa02bf00f328534650fd82fe719f2b0aab",
      "transactionIndex": "0xc",
      "blockHash": "0x57bf025909b6b434ccbf3504f3b464275ac390891cce442692053622b951764a",
      "blockNumber": "0x1522f62",
      "gasUsed": "0x93b1",
      "effectiveGasPrice": "0xf437c",
      "from": "0x538d8f0c878ff754cbc08d80ddadf08bf7f6bec7",
      "to": "0x660f9aa249761000190e93ab914ac1d832e917ae",
      "contractAddress": null,
      "l1BaseFeeScalar": "0x44d",
      "l1BlobBaseFee": "0x1",
      "l1BlobBaseFeeScalar": "0xa118b",
      "l1Fee": "0x6f5101fe",
      "l1GasPrice": "0x3f30c664",
      "l1GasUsed": "0x640"
    },
    {
      "status": "0x1",
      "cumulativeGasUsed": "0x257dea",
      "logs": [
        {
          "address": "0xc9a1a675efa0156f77540c097da5deeb6a32c917",
          "topics": [
            "0xa5ae833d0bb1dcd632d98a8b70973e8516812898e19bf27b70071ebc8dc52c01",
            "0x000000000000000000000000660f9aa249761000190e93ab914ac1d832e917ae"
          ],
          "data": "0x00000000000000000000000000000000000000000000000001aa535d3d0c00000000000000000000000000000000000000000000000000000000000000015180",
          "blockHash": "0x57bf025909b6b434ccbf3504f3b464275ac390891cce442692053622b951764a",
          "blockNumber": "0x1522f62",
          "transactionHash": "0x823aba4138ae68cd316204dd2830390e049f003f040ceb332f9f89da475a0a67",
          "transactionIndex": "0xd",
          "logIndex": "0x39",
          "removed": false
        }
      ],
      "logsBloom": "0x00000000000000000000000000000000000000000000000000000000000000000000000000000000000000000000000000000000000000000000000020004000000000000000400000000000000000000000000000000000000000000000000000000000000000000000000200000000000000000000000000000000000000000000000000000000000000000000000000000000000000000000000000000000000000000000000000001000000000000000000000000000000000000000000000000000000000000000000000000000000040000000000000000000000000000100000000000000000000000000000000000200000000000008000000000000",
      "type": "0x2",
      "transactionHash": "0x823aba4138ae68cd316204dd2830390e049f003f040ceb332f9f89da475a0a67",
      "transactionIndex": "0xd",
      "blockHash": "0x57bf025909b6b434ccbf3504f3b464275ac390891cce442692053622b951764a",
      "blockNumber": "0x1522f62",
      "gasUsed": "0xa9d9",
      "effectiveGasPrice": "0xf437c",
      "from": "0x538d8f0c878ff754cbc08d80ddadf08bf7f6bec7",
      "to": "0x660f9aa249761000190e93ab914ac1d832e917ae",
      "contractAddress": null,
      "l1BaseFeeScalar": "0x44d",
      "l1BlobBaseFee": "0x1",
      "l1BlobBaseFeeScalar": "0xa118b",
      "l1Fee": "0x6f5101fe",
      "l1GasPrice": "0x3f30c664",
      "l1GasUsed": "0x640"
    }
  ],
  "libraries": [],
  "pending": [],
  "returns": {},
  "timestamp": 1740094890,
  "chain": 84532,
  "commit": "ce951d4"
}