{
  "transactions": [
    {
      "hash": "0x756fe62c4c294e6923151fe1d5c3b161c9ccce2c9cbbd0d8366368f332b922a2",
      "transactionType": "CALL",
      "contractName": null,
      "contractAddress": "0xe652a2e58c549a0c0589499b028d1af8c1f3a49d",
      "function": "deposit()",
      "arguments": [],
      "transaction": {
        "from": "0x97e7f2b08a14e4c0a8dca87fbeb1f68b397c91df",
        "to": "0xe652a2e58c549a0c0589499b028d1af8c1f3a49d",
        "gas": "0xd7ff",
        "value": "0x2386f26fc10000",
        "input": "0xd0e30db0",
        "nonce": "0xc",
        "chainId": "0x15af1"
      },
      "additionalContracts": [],
      "isFixedGasLimit": false
    },
    {
      "hash": "0xc14c68680eb3e1a4bd04da13a27bbee493b04b7ff74c164e15d58928ae59336d",
      "transactionType": "CALL",
      "contractName": null,
      "contractAddress": "0xe652a2e58c549a0c0589499b028d1af8c1f3a49d",
      "function": "addStake(uint32)",
      "arguments": [
        "86400"
      ],
      "transaction": {
        "from": "0x97e7f2b08a14e4c0a8dca87fbeb1f68b397c91df",
        "to": "0xe652a2e58c549a0c0589499b028d1af8c1f3a49d",
        "gas": "0xf866",
        "value": "0x2386f26fc10000",
        "input": "0x0396cb600000000000000000000000000000000000000000000000000000000000015180",
        "nonce": "0xd",
        "chainId": "0x15af1"
      },
      "additionalContracts": [],
      "isFixedGasLimit": false
    }
  ],
  "receipts": [
    {
      "status": "0x1",
      "cumulativeGasUsed": "0xf6d1",
      "logs": [
        {
          "address": "0x5fbe6eff3ccde930542d535297166487c5d9ed5e",
          "topics": [
            "0x2da466a7b24304f47e87fa2e1e5a81b9831ce54fec19055ce277ca2f39ba42c4",
            "0x000000000000000000000000e652a2e58c549a0c0589499b028d1af8c1f3a49d"
          ],
          "data": "0x0000000000000000000000000000000000000000000000000027147114878000",
          "blockHash": "0xa2276db6997e354d79e28b320c21c46328453f03164005c6ea4d573d816415ac",
          "blockNumber": "0x186327",
          "transactionHash": "0x756fe62c4c294e6923151fe1d5c3b161c9ccce2c9cbbd0d8366368f332b922a2",
          "transactionIndex": "0x1",
          "logIndex": "0x0",
          "removed": false
        }
      ],
      "logsBloom": "0x00000000000000000000000000000000000000000008000000000000000000000000000000000000000000000000000000000000000000000000000000000000000000000000000000800000000000000000000008000000000000000000200000000000000000000000000000000000000000000800000000000000000200000000000000000000000000000000000000000000000000000000000000000000000000000000000000000000000000000000000000000000000002000000000000000000000000000000200000000000000000000000000000000000000000000040000000000000000000000000000000000000000000000000000000000000",
      "type": "0x2",
      "transactionHash": "0x756fe62c4c294e6923151fe1d5c3b161c9ccce2c9cbbd0d8366368f332b922a2",
      "transactionIndex": "0x1",
      "blockHash": "0xa2276db6997e354d79e28b320c21c46328453f03164005c6ea4d573d816415ac",
      "blockNumber": "0x186327",
      "gasUsed": "0x93b1",
      "effectiveGasPrice": "0x3eb",
      "from": "0x97e7f2b08a14e4c0a8dca87fbeb1f68b397c91df",
      "to": "0xe652a2e58c549a0c0589499b028d1af8c1f3a49d",
      "contractAddress": null
    },
    {
      "status": "0x1",
      "cumulativeGasUsed": "0x1a0aa",
      "logs": [
        {
          "address": "0x5fbe6eff3ccde930542d535297166487c5d9ed5e",
          "topics": [
            "0xa5ae833d0bb1dcd632d98a8b70973e8516812898e19bf27b70071ebc8dc52c01",
            "0x000000000000000000000000e652a2e58c549a0c0589499b028d1af8c1f3a49d"
          ],
          "data": "0x00000000000000000000000000000000000000000000000000271471148780000000000000000000000000000000000000000000000000000000000000015180",
          "blockHash": "0xa2276db6997e354d79e28b320c21c46328453f03164005c6ea4d573d816415ac",
          "blockNumber": "0x186327",
          "transactionHash": "0xc14c68680eb3e1a4bd04da13a27bbee493b04b7ff74c164e15d58928ae59336d",
          "transactionIndex": "0x2",
          "logIndex": "0x1",
          "removed": false
        }
      ],
      "logsBloom": "0x00000000000000000000000000000000000000000008000000000000000000000000000000000000000000000000000000000000000000000000000000000000000000000000000000800000000000000000000008000000000000000000000000000000000000000000000000000000000000000800000000000000000000000000000000000000000000000000000000000000000000000000000000000000000000000000000000000000000000000000000000000000000002000000000000000000000000000000200000000000000040000000000000000000000000000100000000000000000000000000000000000200000000000000000000000000",
      "type": "0x2",
      "transactionHash": "0xc14c68680eb3e1a4bd04da13a27bbee493b04b7ff74c164e15d58928ae59336d",
      "transactionIndex": "0x2",
      "blockHash": "0xa2276db6997e354d79e28b320c21c46328453f03164005c6ea4d573d816415ac",
      "blockNumber": "0x186327",
      "gasUsed": "0xa9d9",
      "effectiveGasPrice": "0x3eb",
      "from": "0x97e7f2b08a14e4c0a8dca87fbeb1f68b397c91df",
      "to": "0xe652a2e58c549a0c0589499b028d1af8c1f3a49d",
      "contractAddress": null
    }
  ],
  "libraries": [],
  "pending": [],
  "returns": {},
  "timestamp": 1740094442,
  "chain": 88817,
  "commit": "ce951d4"
}